S00600004844521B
S31500000000480003DE00000000480003A600000000D0
S31500000010480001660000000048000186000000005C
S31500000020480001A6000000004802072A0000000060
S31500000030480001C600000000480001E6000000007C
S3150000004048000206000000004800022600000000EA
S31500000050480001460000000048000146000000007C
S31500000060480002460000000048000266000000004A
S315000000704800028600000000480002A600000000BA
S31500000080480002C6000000004800014600000000CB
S315000000904800014600000000480002E6000000009B
S315000000A0480003060000000048000146000000006A
S315000000B04800014600000000480003A600000000BA
S315000000C0480001460000000048000146000000000C
S315000000D048000146000000004800014600000000FC
S315000000E04800032600000000480003460000000008
S315000000F04800036600000000480003860000000078
S31500000100480003DE7D7143A67D9243A63D40001A5A
S31500000110814A00003D600080818B80047D6000265E
S315000001207C0C50407D9242A6408200107D6FF120EB
S315000001307D7142A6480015E47D6FF1207D7142A6CF
S315000001404E8000207D5043A67D4802A67D5343A6DF
S315000001504BFFFFB57D5342A67D4803A67D5042A6C0
S31500000160480205A07D5043A67D4802A67D5343A6BE
S315000001704BFFFF957D5342A67D4803A67D5042A6C0
S31500000180480205907D5043A67D4802A67D5343A6AE
S315000001904BFFFF757D5342A67D4803A67D5042A6C0
S315000001A0480205787D5043A67D4802A67D5343A6A6
S315000001B04BFFFF557D5342A67D4803A67D5042A6C0
S315000001C0480205607D5043A67D4802A67D5343A69E
S315000001D04BFFFF357D5342A67D4803A67D5042A6C0
S315000001E0480205507D5043A67D4802A67D5343A68E
S315000001F04BFFFF157D5342A67D4803A67D5042A6C0
S31500000200480205387D5043A67D4802A67D5343A685
S315000002104BFFFEF57D5342A67D4803A67D5042A6C0
S31500000220480205207D5043A67D4802A67D5343A67D
S315000002304BFFFED57D5342A67D4803A67D5042A6C0
S31500000240480205087D5043A67D4802A67D5343A675
S315000002504BFFFEB57D5342A67D4803A67D5042A6C0
S31500000260480205007D5043A67D4802A67D5343A65D
S315000002704BFFFE957D5342A67D4803A67D5042A6C0
S31500000280480204E87D5043A67D4802A67D5343A656
S315000002904BFFFE757D5342A67D4803A67D5042A6C0
S315000002A0480204D07D5043A67D4802A67D5343A64E
S315000002B04BFFFE557D5342A67D4803A67D5042A6C0
S315000002C0480204B87D5043A67D4802A67D5343A646
S315000002D04BFFFE357D5342A67D4803A67D5042A6C0
S315000002E0480204A07D5043A67D4802A67D5343A63E
S315000002F04BFFFE157D5342A67D4803A67D5042A6C0
S31500000300480204987D5043A67D4802A67D5343A625
S315000003104BFFFDF57D5342A67D4803A67D5042A6C0
S31500000320480204807D5043A67D4802A67D5343A61D
S315000003304BFFFDD57D5342A67D4803A67D5042A6C0
S31500000340480204A07D5043A67D4802A67D5343A6DD
S315000003504BFFFDB57D5342A67D4803A67D5042A6C0
S31500000360480204887D5043A67D4802A67D5343A6D5
S315000003704BFFFD957D5342A67D4803A67D5042A6C0
S31500000380480204707D5043A67D4802A67D5343A6CD
S315000003904BFFFD757D5342A67D4803A67D5042A6C0
S315000003A0480204587D5043A67D7143A67D60002611
S315000003B039400027394AFFFF2C0A00004181FFF827
S315000003C07D6FF1203D4080003D600070914BC01074
S315000003D07D7142A67D5042A64C0000644800000490
S315000003E03C207F7F38217F7F7C230B787C240B7811
S315000003F07C250B787C260B787C270B787C280B7861
S315000004007C290B787C2A0B787C2B0B787C2C0B7840
S315000004107C2E0B787C2F0B787C300B787C310B781C
S315000004207C320B787C330B787C340B787C350B78FC
S315000004307C360B787C370B787C380B787C390B78DC
S315000004407C3A0B787C3B0B787C3C0B787C3D0B78BC
S315000004507C3E0B787C3F0B783800000038000000AB
S315000004603D600080382BEFFC3DA0008039ADFFF0E9
S315000004703C40001A38427FF0480004654BFFFF6598
S315000004809421FFF07C0802A693E1000C9001001471
S315000004903BE300002C0300004182001C3860000092
S315000004A0386300012C0300664082FFF837FFFFFF28
S315000004B04082FFEC8001001483E1000C7C0803A657
S315000004C0382100104E8000209421FFF08163000047
S315000004D038A0000091610008814300049141000C9E
S315000004E0812100087C092040418200309083000071
S315000004F07C8C20F891830004816300007C0B2040F3
S3150000050040820044818300047C8B20F87C0C584098
S31500000510408200344800002C7C8C20F89183000037
S3150000052090830004816300007C8A20F87C0B504095
S3150000053040820014818300047C0C20404082000825
S3150000054038A0000181810008918300008161000CC0
S315000005509163000454A3063E382100104E8000200B
S315000005602C0300004182000C38600004480000089B
S31500000570386000003C8000703884C000816401400F
S31500000580556B07F87D6B1B78916401404E80002007
S315000005904E8000204E8000209421FFE87C0802A6B1
S315000005A0BF8100083FC000709001001C3BDEC00008
S315000005B0813E02803BFE028455296FFF3BBE0280CE
S315000005C041820064801D00003B8000015380BA1008
S315000005D0901D00003BDC0000801F00003860000218
S315000005E053C07C20901F0000801F000053C08B9CCE
S315000005F0901F00004BFFFE8D817F0000556B8FFF23
S315000006004082FFD8819F0000558C7FFF4082FFC843
S31500000610801D0000398000005180BA10901D000036
S3150000062048000000819E028038600002558C003828
S31500000630618C0001919E02804BFFFE49801F0000E5
S3150000064039400003514006FE901F0000801F000045
S31500000650392000095120A016901F0000801F0000BD
S315000006603BA0000153A07C20901F0000819F00004A
S31500000670558C8FFF4082FFF03860000A4BFFFE0565
S31500000680817E028038600002556B0038917E0280C0
S315000006904BFFFDF1801F000053A07C20901F00003F
S315000006A0819F0000558C8FFF4082FFF0BB810008C0
S315000006B08001001C3860000A7C0803A63821001857
S315000006C04BFFFDC0398000A0B183000038A00000B8
S315000006D0B0A300283880000C54AC203639650001E0
S315000006E05565043E2C0500107D836214B08C010014
S315000006F04180FFE83CA0222260A5222290A3000CA4
S3150000070090A300103D6000033D400001616BFFFCBB
S3150000071091630018614A55549143001C38A00000AB
S315000007203885000054AC2036396500015565043E15
S315000007302C0500107D836214B08C01024180FFE815
S315000007403D800002618CAAA8918300184E8000208B
S315000007503D803C023D601401618CAAA8918300187B
S31500000760616B55549163001C38A000003885000069
S3150000077054AC2036396500015565043E2C05001041
S315000007807D836214B08C01024180FFE83D8028021F
S31500000790618CAAA8918300184E8000203C600070EE
S315000007A03863600039600000B1630100394001E040
S315000007B0B14301024E8000203C6000709421FFF896
S315000007C07C0802A69001000C386340004BFFFEF93E
S315000007D03C600070386344004BFFFEED8001000C66
S315000007E07C0803A6382100084BFFFFB43C8000704C
S315000007F03860400038846000B0640006B0640016BB
S315000008004E8000203C600070386360003960400014
S31500000810B16300863940000FB143007E4E80002050
S315000008203D800080898C80172C0C000041820014CA
S315000008303D80005EA06C000E39600000B1630000D0
S315000008404E8000203D800080898C80102C0C000199
S31500000850408200243C60005E3D600000386300007A
S31500000860616BFFFFB163000A39405000B143000ECF
S315000008704E8000203C6000703863C000396020FF65
S315000008809163002C39405000914300244E80002093
S315000008903D800080898C80102C0C00014082002451
S315000008A03C60005E3D60000038630000616BFFFF46
S315000008B0B163000A39400000B143000E4E800020AB
S315000008C03C6000703863C000396020FF9163002CE3
S315000008D039400000914300244E8000209421FFE01F
S315000008E07C0802A6BF810010900100247C7E9AA697
S315000008F05463463E2C0300354082001438600002E3
S315000009007C7E9BA63BE00010480000103860080281
S315000009107C7E9BA63BE000203F8000803B9C8014B1
S315000009209BFC00003FE000703BFFC0003D408000A4
S31500000930915F00187C7E9AA65463843E2C03350092
S31500000940408200183FC00078815E00003BBE000078
S31500000950654A2000915E00003D800321618C710094
S31500000960919F0280817F0284556B06D6616B508011
S31500000970656B0001917F02844BFFFC213D80009155
S31500000980618C50C3919F02843860FFFF7C7603A67A
S3150000099039200003B13F0200386039427C600124EF
S315000009A0386030207C708BA64C00012C3C6000081F
S315000009B0606308007C7183A638600C007C7083A697
S315000009C03D60007039800000918B7F803BC0003213
S315000009D09BDC00019BDC00023BC000009BDC0003AB
S315000009E03C6000307C78C3A638607C407C78CBA61F
S315000009F03C60800060630C007C7883A63860000051
S31500000A007C788BA69BCDE4C439600003917F0100FE
S31500000A103D80FF80618C0650919F01047C7E9AA6E2
S31500000A205463843E2C0335003FC0FFFC4082000C1B
S31500000A3063DE00504800000863DE015093DF010CBE
S31500000A403D800080618C0403919F01083FC00080B7
S31500000A50807E00003FC0008180DE80003FC05AA536
S31500000A6063DE3CC33FA0008093DD00003FA0A55A93
S31500000A7063BDC33C3C80008193A480008144800018
S31500000A807C0AE840408200243FA00080817D00006F
S31500000A907C0BF0404082000C3BA000444800001054
S31500000AA0388000414800000C3BA00000389D000043
S31500000AB03FA000803BBD8010989D00023C800080D6
S31500000AC0906400003C60008190C3800038600000A4
S31500000AD03D80FFFC987D0003618C0040919F0114CE
S31500000AE03D600090616B0823917F011039408C4076
S31500000AF0915F011C3D2000A061290003913F011870
S31500000B003CC0008038C6800C3960000139400004C2
S31500000B109966000099460001986600023D20000093
S31500000B20987C0003392900DC5523043F41820024C8
S31500000B303CC0008038C6EB1F3F8000003B9C176B13
S31500000B407C6903A68D9C00019D8600014200FFF88A
S31500000B50487FDFD13CC0700090DF014460CB0005C8
S31500000B60917F01403F8000703B9C6000A13C00FEED
S31500000B70552904214082002C3C600090389E0000DC
S31500000B804BFFF9492C0300014082000C3BC00010CA
S31500000B904800001439800000999D000048000014A8
S31500000BA03BC000039BDD000039800080999D000159
S31500000BB04BFFFCE1899D00002C0C000040820014D4
S31500000BC0819F0280558C00C0658C2000919F028019
S31500000BD090DF01443D807000618C0001919F0140CF
S31500000BE07C7E22A65463077E90610008816100081E
S31500000BF02C0B00004082000C3BC00001480000089E
S31500000C003BC000007FDE23A67C7E22A681810008F1
S31500000C105463077E7C0360404082002839800001CF
S31500000C20998DE4C5817F0000815F0000A19C0800CA
S31500000C30557D5FBE55467FBE559E07BE48000018CF
S31500000C4039800000998DE4C53BA0000238C0000140
S31500000C503BCC0000B3DC080054CC8B5C57ABAA54E9
S31500000C607D8C5B783D200000618C0C00919F00001C
S31500000C703929174C7D2803A6386000067C7E23A6FA
S31500000C803D6002F8917F003C4E80002148000749F4
S31500000C90481A50B53D800000398C174C7D8803A654
S31500000CA04E8000214800079580010024BB8100107A
S31500000CB07C0803A6382100204E8000203C800000DE
S31500000CC034840002886D82A9418200243CC00080E1
S31500000CD038C6E4A83CA0001A38A570347C8903A65F
S31500000CE085850004958600044200FFF83C800000DC
S31500000CF0348400004182001C3CA0008038A5EB1C17
S31500000D0038C000007C8903A694C500044200FFFC9D
S31500000D103C800000348400BB4182001C3CC0008043
S31500000D2038C6801438A000007C8903A694A6000467
S31500000D304200FFFC986D82A94E8000209421FFF8A6
S31500000D407C0802A69001000C4BFFFAFD487FDE45A9
S31500000D504BFFFF6D3D800000398C00545583043FE6
S31500000D60418200243CA0008038A5D0F33C800000DE
S31500000D70388417177C6903A68D8400019D850001C0
S31500000D804200FFF83D800000398C4DF05583043F4A
S31500000D90418200243CA0008038A583033C80001AD1
S31500000DA03884703F7C6903A68D8400019D8500010F
S31500000DB04200FFF88001000C7C0803A638210008D9
S31500000DC04E8000209421FFF8888D80207C0802A6A2
S31500000DD09001000C2C040000418200482C040010F5
S31500000DE0418200404BFFF7AD818DE4CC806DE4C8B5
S31500000DF0388C0004480008B92C0300014082001416
S31500000E00386000004BFFF75D38800001480000188D
S31500000E104BFFF78538600000986D82A948000010E6
S31500000E2038800000988D82A95483063E8001000C0C
S31500000E307C0803A6382100084E8000203C60008014
S31500000E4038638000808300003D40BB44614AE1690D
S31500000E507C045040908DE4D0418200443D80A5BC86
S31500000E60618CD1937C046040418200343D80BD5545
S31500000E70618C93F37C046040418200243D80E45CF5
S31500000E80618CD91A7C046040418200143D80356B28
S31500000E90618CD3727C0460404082000C3880000173
S31500000EA04800000838800000398000009183000067
S31500000EB05483063E4E80002038C0000038A0001043
S31500000EC08164000081830000388400047C0C584053
S31500000ED0386300044182000838C0000134A5FFFFD2
S31500000EE04082FFE02C0600004182000C38600000C2
S31500000EF04E800020386000014E8000209421FFF8CB
S31500000F007C0802A638828014908DE4D43D60001CD3
S31500000F10816B00083D400004394A00009001000C36
S31500000F207C6B52144BFFFF952C0300004182000C92
S31500000F303860000148000008386000008001000C9D
S31500000F407C0803A6382100084E8000209421FFF873
S31500000F507C0802A6388280543D20001C908DE4D483
S31500000F60392900003D00001C80E9001839080000FE
S31500000F707C0740409001000C418000643D800002E7
S31500000F80398CFFFF7CC862147C07304041810050D9
S31500000F90806900087C034040418000447C03304067
S31500000FA04181003C80A900207C0540404180003002
S31500000FB07C0530404181002881870000816900005E
S31500000FC07C0C5840408200184BFFFEF12C030000B9
S31500000FD04182000C386000014800000838600000BB
S31500000FE08001000C7C0803A6382100084E800020F2
S31500000FF038C0000038A00010818300003863000468
S315000010002C0CFFFF4082000838C0000181840000DC
S31500001010388400042C0CFFFF4082000838C0000111
S3150000102034A5FFFF4082FFD42C0600004182000C4D
S31500001030386000004E800020386000014E8000209D
S315000010403CE0001C7C0802A69421FFF838E700006B
S315000010503D0000048147000C81870010390800001C
S315000010609001000C7C6A42147C8C42144BFFFF8575
S315000010702C0300004182000C386000014800000883
S31500001080386000008001000C7C0803A638210008A7
S315000010904E800020896D80202C0B000241820024A6
S315000010A02C0B0003418200084800002C3D80009074
S315000010B0398C30003C6000903863100048000028EE
S315000010C03D800056398C00003C60005638631000A5
S315000010D0480000143D800056398C00003C60005EDC
S315000010E038631000918DE4C8906DE4CC4E800020EA
S315000010F03C6000403863E0003C80CAFE814300004B
S315000011006084CAFE7C0A20404082003881831FF832
S315000011107C0C20404082002C816300043C80AFFEA2
S315000011206084AFFE7C0B20404082001881831FFC48
S315000011307C0C20404082000C386000014E8000206C
S31500001140386000004E8000209421FFF87C0802A63B
S315000011509001000C4BFFFF9D2C03000041820024F0
S315000011603D800040818CFFA83D60A55A616BA55A61
S315000011707C0C58404082000C386000014800000892
S31500001180386000008001000C7C0803A638210008A6
S315000011904E80002038A300009421FFF87C0802A6A8
S315000011A09001000C4BFFFFA52C030000418200209C
S315000011B03D8000023D60001A398C0000396BFFFF4C
S315000011C05584103A5563103A480000143C800002DA
S315000011D0388400003C60001A3863FFFF80C5002099
S315000011E07C062040418000507C0618404181004822
S315000011F080C500247C0620404180003C7C061840C7
S315000012004181003480C500287C06204041800028AA
S315000012107C0618404181002080A5002C7C052040DA
S31500001220418000147C0518404181000C38600001A3
S3150000123048000008386000008001000C7C0803A606
S31500001240382100084E8000203D0000187C0802A6C8
S315000012509421FFF83908000080E800183D4000029C
S31500001260394A00007C0A38409001000C4181005048
S315000012703D80001A398CFFFF7C0C384041800040CD
S31500001280386800004BFFFF112C030000418200303C
S3150000129081870000816800007C0C58404082002055
S315000012A0818800043D603333616B33337C0C5840D6
S315000012B04082000C386000014800000838600000D9
S315000012C08001000C7C0803A6382100084E8000200F
S315000012D03D00001C7C0802A69421FFF83908000096
S315000012E080E800183D400002394A00007C0A384078
S315000012F09001000C418100583D80001A398CFFFF97
S315000013007C0C384041800048386800004BFFFE895D
S315000013102C030000418200383D800004398C000017
S315000013207D87602E816800007C0C5840408200203A
S31500001330818800043D603333616B33337C0C584045
S315000013404082000C38600001480000083860000048
S315000013508001000C7C0803A6382100084E8000207E
S315000013609421FFF07C0802A63D600008816B09808D
S315000013703D405F43614A46427C0B504093C10008A2
S3150000138093E1000C900100143BE000004082002C29
S31500001390898D80242C0C0010408200207C708AA647
S315000013A0607E04007FD08BA67C708AA65463056B92
S315000013B0418200083BE00001800100147C0803A67E
S315000013C057E3063E83C1000883E1000C3821001074
S315000013D04E8000209421FFF07C0802A693E1000CC9
S315000013E0900100144BFFFD0D2C03000041820038D4
S315000013F03C6000403863E00083E31F9C2C1F000024
S31500001400418200242C1FFFFF4182001C81831FA004
S315000014107D8C60F87C0CF8404082000C7FE803A6C7
S315000014204E8000218001001483E1000C7C0803A695
S31500001430382100104E8000209421FFF07C0802A67F
S3150000144093E1000C900100144BFFFF8D4BFFFC490C
S315000014503FE000803D605A783BFF8004616BAA2321
S3150000146039400000917F0000914DE4D04BFFF959BF
S315000014702C030001418200F84BFFF9C52C03000143
S31500001480418200EC4BFFFAC92C0300014082002088
S315000014904BFFF3B5487FD6FD3D80001C818C0020B4
S315000014A07D8803A64E800021480000CC4BFFFE2518
S315000014B02C030001408200284BFFFA452C03000054
S315000014C04182001C4BFFFB7D2C0300004082001074
S315000014D04BFFF86D487F70854800009C4BFFFD6D03
S315000014E02C030001408200484BFFFC612C030000E6
S315000014F04182003C4BFFFE6D2C0300004182003010
S3150000150039800000919F00003D6000803940000254
S31500001510914B8008480000897C708AA6607F028013
S315000015207FF08BA6480001E94800004C4BFFFD1DEB
S315000015302C030001408200384BFFFC112C030000F5
S315000015404082002C39800000919F00003D600080A1
S3150000155039400002914B80083D2000188129002067
S315000015607D2803A64E8000214800000C4BFFF7D1D2
S31500001570487F6D958001001483E1000C7C0803A66A
S31500001580382100104E8000203D8000803D60BB4425
S31500001590616BE169916C80004BFFFEA09421FFF026
S315000015A07C0802A693C1000893E1000C9001001488
S315000015B03FC000083BDE0980817E00047D308AA69C
S315000015C0612900027D308BA6557F452E4C00012CEB
S315000015D03960000F7D6903A63C8000703884A00442
S315000015E03884FFFC387E003C858300049584000423
S315000015F04200FFF82C1F00003C80007038848000F9
S315000016004182001C3884FFFC3BDE00787FE903A69C
S31500001610859E0004958400044200FFF83FE00070B8
S315000016203BFFC290A17F000039000002616B0200FF
S31500001630B17F00007D308AA67D2940797D308BA65A
S315000016404C00012C800100147C0803A683C100080D
S3150000165083E1000C382100104E8000209421FFF811
S315000016607C0802A69001000C3C000000600062D0DD
S315000016707C0803A67D6000A67C1213A67D9A03A6AD
S31500001680616B00047D7B03A64C0000648181000C25
S31500001690382100087D6000A67C1213A67D9A03A659
S315000016A0616B00047D7B03A64C0000648063000030
S315000016B07C6B18F8916400002C032EE24182003006
S315000016C02C033DD3418200302C034CC441820030B0
S315000016D03D805555618C55557C036000418200085C
S315000016E048000024386000014800002038600002ED
S315000016F048000018386000034800001038600004F5
S3150000170048000008386000004E8000203D80000040
S31500001710398C61204BFFFF489421FFF87C0802A614
S315000017209001000C386029427C6001243D60007005
S3150000173039400055B14B4002480000008001000CC2
S315000017407C0803A6382100084E8000203C6000700B
S315000017503863C0003960556CB163000E3D4000002F
S31500001760614AAA39B143000E4E8000209421FFF051
S315000017703C8000013D600060616B006091648308FD
S315000017803D400003614A000391448308388000000D
S315000017903D8000FF618C00FF918400004800000C32
S315000017A081810008388C0001908100088181000841
S315000017B0280C00644180FFEC3C8000703884C00037
S315000017C081640100556B07FA9164010039400001FC
S315000017D0994DE4C4382100104E8000209421FFF07A
S315000017E03C8000703884C00081640100616B000297
S315000017F0916401003C8000033D800060618C0060C4
S315000018009184EF1C608900039124EF1C388000004E
S315000018103D4000FF614A00FF914400004800000C73
S3150000182081810008388C00019081000881810008C0
S31500001830280C00644180FFEC39800000998DE4C4D7
S31500001840382100104E80002009421FFF807C0802CC
S31500001850A603D8000180818C002007D8803A6090CA
S3150000186001000C04E80002108001000C07C0803A59
S31500001870603821000804E80002004E80002009427A
S315000018801FFF807C0802A609001000C03C00000073
S3150000189006000168C07C0803A607D6000A607C1211
S315000018A013A607D9A03A60716BFFFB07D7B03A6061
S315000018B04C00006408181000C03821000807D60044
S315000018C00A607C1213A607D9A03A60716BFFFB076A
S315000018D0D7B03A604C00006400000000FFFFFFFF35
S315000018E0FFFFFFFFFFFFFFFFFFFFFFFFFFFFFFFF02
S315000018F0FFFFFFFFFFFFFFFFFFFFFFFFFFFFFFFFF2
S31500001900FFFFFFFFFFFFFFFFFFFFFFFFFFFFFFFFE1
S31500001910FFFFFFFFFFFFFFFFFFFFFFFFFFFFFFFFD1
S31500007FD0FFFFFFFFFFFFFFFFFFFFFFFF000003ECB8
S31500007FE00000000000003FFF16F1F7A9E90E085651
S31500007FF00000400000007FFF1FF2E3F8E00D1C07C1
S31500008000FFFFFFFFFFFFFFFFFFFFFFFFFFFFFFFF7A
S31500008010FFFFFFFFFFFFFFFFFFFFFFFFFFFFFFFF6A
S31500008020FFFFFFFFFFFFFFFFFFFFFFFFFFFFFFFF5A
S31500008030FFFFFFFFFFFFFFFFFFFFFFFFFFFFFFFF4A
S315000200005A5A5A5A33333333000200C00002008070
S3150002001000020100FFFFFFFFFFFFFFFF0003991031
S31500020020FFFFFFFFFFFFFFFFFFFFFFFFFFFFFFFFD8
S31500020030FFFFFFFFFFFFFFFF32288000CDD77FFFC4
S31500020040FFFFFFFFFFFFFFFFFFFFFFFFFFFFFFFFB8
S31500020050FFFFFFFFFFFFFFFFFFFFFFFFFFFFFFFFA8
S31500020060FFFFFFFFFFFFFFFFFFFFFFFFFFFFFFFF98
S31500020070FFFFFFFFFFFFFFFFFFFFFFFFFFFFFFFF88
S31500020080FFFFFFFFFFFFFFFFFFFFFFFFFFFFFFFF78
S31500020090FFFFFFFFFFFFFFFFFFFFFFFFFFFFFFFF68
S315000200A0FFFFFFFFFFFFFFFFFFFFFFFFFFFFFFFF58
S315000200B0FFFFFFFFFFFFFFFFFFFFFFFFFFFFFFFF48
S315000200C0AFFE08150000000000000000000000005E
S315000200D00000000000000000000000000000000018
S315000200E00000000000000000000000000000000008
S315000200F000000000000000000000000000000000F8
S31500020100FFFFFFFFFFFFFFFFFFFFFFFFFFFFFFFFF7
S315000207004803599200000000480367AE000000004B
S3150002071048035A560000000048035B1A0000000016
S3150002072048035BDE0000000048037E5A000000001A
S3150002073048035CA20000000048035D66000000005A
S3150002074048035E2A0000000048035EEE0000000037
S315000207504803599200000000480359920000000025
S3150002076048035F42000000004803600600000000E4
S31500020770480360CA000000004803618E00000000C2
S31500020780480362520000000048035992000000002C
S315000207904803599200000000480363160000000057
S315000207A0480363DA00000000480359920000000083
S315000207B048035992000000004803599200000000C5
S315000207C048035992000000004803599200000000B5
S315000207D048035992000000004803599200000000A5
S315000207E04803649E000000004803656200000000A2
S315000207F04803662600000000480366EA000000007F
S31500020800FFFFFFFFFFFFFFFFFFFFFFFFFFFFFFFFF0
S31500020810FFFFFFFFFFFFFFFFFFFFFFFFFFFFFFFFE0
S31500020820FFFFFFFFFFFFFFFFFFFFFFFFFFFFFFFFD0
S31500020830FFFFFFFFFFFFFFFFFFFFFFFFFFFFFFFFC0
S315000229805A5A5A5A000000009421FFF87C0802A6FF
S315000229909001000C4816C3E54816B615481E7B2D55
S315000229A03D80008039600002916C8008386000002A
S315000229B048016089386000C9482945D98001000C60
S315000229C07C0803A6382100084E8000209421FFF0DF
S315000229D07C0802A693C1000893E1000C9001001442
S315000229E03D800080818C1CC4558C07BE2C0C0003D4
S315000229F0408201783FE000803BFF81583D600080C5
S31500022A00896B10723D400080894A106C7D6A58506D
S31500022A10917F0000819F00003D200080892910815E
S31500022A2055294BEC7D8C4A14919F0000817F000052
S31500022A303D400080894A106F554A4BEC7D6B52141B
S31500022A40917F0000819F00003D2000808929106847
S31500022A5055294BEC7D8C4A14919F0000817F000022
S31500022A603D400080894A1087554A4BEC7D6B5214D3
S31500022A70917F0000819F00003D200080892910710E
S31500022A80552999587D8C4A14919F0000817F000038
S31500022A903D400080894A1085554AB8507D6B5214D4
S31500022AA0917F0000819F00003D20008089291086C9
S31500022AB05529D00A7D8C4A14919F00003D60008002
S31500022AC0896B108A556B06F62C0B000041820010AA
S31500022AD0819F00003D8C2000919F00003FC0008036
S31500022AE03BDEA607897E00002C0B00014082001007
S31500022AF0819F00003D8C4000919F00003D800018A0
S31500022B00398C4B907D8803A64E8000213D60008063
S31500022B10815F0000914B1CD03D20001839294BD013
S31500022B207D2803A64E8000213BE000009BFE0000AC
S31500022B303D6000809BEBA5FE3D4000809BEAA6011E
S31500022B403D2000809BE9A6053D8000809BECA60205
S31500022B503D6000809BEBA6063D4000809BEAA603F3
S31500022B603D2000809BE9A60483C1000883E1000C96
S31500022B70800100147C0803A6382100104E80002034
S31500022B809421FFE87C0802A693E100149001001C40
S31500022B903D800080818C1CC4558C07BE2C0C000322
S31500022BA0408203F83FE000803BFF813C3D600080AD
S31500022BB0896B1094997F000139428A44893F00014A
S31500022BC07C8A48AE3D800080988C106038628A38D4
S31500022BD0481DE1C53D600080906B1CB4394289D026
S31500022BE0899F00017C8A60AE3D600080988B105FF1
S31500022BF0386289E0481DE1A13D20008090691CAC45
S31500022C0039428A80897F00017C8A58AE3D800080E5
S31500022C10988C106138628A74481DE17D3D200080DF
S31500022C2090691CB83D40008039828AA0893F000124
S31500022C307D8C48AE998A10643D60008039428A28AC
S31500022C40893F00017D4A48AE994B108A3D8000803B
S31500022C5039628A54893F00017D6B48AE996C108BAC
S31500022C603D800080394289C0893F00017D4A48AED5
S31500022C70994C10893D80008039628A90893F000113
S31500022C807D6B48AE996C108C3D80008039428B304A
S31500022C90893F000155290DFC7D4A4A2EB14C12CAC4
S31500022CA03D800080396288E0893F00017D6B48AE35
S31500022CB0996C105E39828870895F00017D8C50AEF6
S31500022CC02C0C0000408200143D8000803960000018
S31500022CD0996CA5FD480000103D8000803960000116
S31500022CE0996CA5FD39828860897F00017D8C58AE7A
S31500022CF02C0C0000408200143D80008039600000E8
S31500022D00996CA5FC480000103D80008039600001E6
S31500022D10996CA5FC3D80008039628810895F0001AC
S31500022D207D6B50AE996C10673D800080392287F02A
S31500022D30895F00017D2950AE992C10663D80008086
S31500022D40396287E0895F00017D6B50AE996C106530
S31500022D503C80008038848A9B392287C0895F0001C3
S31500022D607D2950AE9924000139828850897F00015D
S31500022D707D8C58AE99840008394287D0893F00017C
S31500022D807D4A48AE9944000239828820897F000133
S31500022D907D8C58AE9984000639428800893F00012D
S31500022DA07D4A48AE994400073D800080396288F02A
S31500022DB0893F00017D6B48AE996C1070398288A0FC
S31500022DC0895F00017D8C50AE998400033962883098
S31500022DD0893F00017D6B48AE9964000939828840BB
S31500022DE0895F00017D8C50AE9984000A396288C0E1
S31500022DF0893F00017D6B48AE9964000B398288B029
S31500022E00895F00017D8C50AE998400003D60008090
S31500022E1039228A64895F00017D2950AE992B108878
S31500022E2039828880897F00017D8C58AE998400049E
S31500022E30394289EC893F00017D4A48AE9944000532
S31500022E40398288D0897F00017D8C58AE9984000E24
S31500022E503D400080392289A0897F00017D2958AE34
S31500022E60992A10803D800080394289B0897F00010D
S31500022E707D4A58AE994C10743D80008039228910E3
S31500022E80897F00017D2958AE992C10753C800080FF
S31500022E903884813239400000B1440000A164000048
S31500022EA089228BEA7C0B48004080004838628920E0
S31500022EB03CA0008038A5107889840001897F000132
S31500022EC0556B1D787D635A14894400017D6B50AEA3
S31500022ED07D6561AEA1840000398C0001B1840000D9
S31500022EE0A144000089628BEA7C0A58004180FFCC2B
S31500022EF03D80008039628900895F00017D6B50AE9A
S31500022F00996C10713D80008039228A08895F000120
S31500022F107D2950AE992C10853D80008039628A1831
S31500022F20895F00017D6B50AE996C10863D800080F2
S31500022F3039228890895F00017D2950AE992C105D57
S31500022F4038828AF03D600080895F0001554A0DFC97
S31500022F507D44522E554A801E899F0001558C0DFCD8
S31500022F607D84622E7D4A6214914B1CA838828AB0F7
S31500022F703D200080899F0001558C0DFC7D84622EC8
S31500022F80558C801E897F0001556B0DFC7D645A2E7F
S31500022F907D8C5A1491891CC083E100148001001CA7
S31500022FA07C0803A6382100184E8000209421FFD801
S31500022FB093C1002093E100243D800080818C1CC4D3
S31500022FC0558C07BE2C0C0003408203903BE00000A8
S31500022FD03FC000803BDE8136B3FE00003CA000808D
S31500022FE038A5813CB3E500003D2000808929A5FC77
S31500022FF02C090000418202C83C60008038631066DA
S3150002300088E3000089428B517C0A380041810058CE
S315000230103D80008039600001996CA6003FC00080A7
S315000230203BDE10658BFE000089828B507C0CF8001B
S315000230304181001C3D80008039600001996CA5FF2A
S31500023040394000C3B1450000480002803D8000803F
S3150002305039600000996CA5FF395F0001995E000096
S31500023060480002683D00008039088A9B3FE00080E4
S315000230703BFF813281480004995F00018088001875
S31500023080548CF77E999F00003CC0008038C681347C
S3150002309081480008994600018128001499260000FB
S315000230A03D00008039088138548BE73E996800015B
S315000230B03C800080388410678928000189840000DA
S315000230C07D2C485099280000896800019964000007
S315000230D0895F00002C0A000340810010398000C37A
S315000230E0B19E0000480000EC899F0001558C0672D3
S315000230F02C0C004040820020899F0001558C06302E
S315000231002C0C008040820010398000C3B19E000062
S31500023110480000C0899F0001558C06722C0C0040A5
S315000231204082003C898600018966000089480001C8
S315000231307D6B52147D6B58F8556B063E7C0C58001D
S3150002314040820010899F00002C0C000240800084FF
S31500023150398000C3B19E000048000078899F0001B3
S31500023160558C06302C0C00804082003C898600007B
S3150002317089660001894800017D6A58507D6B58F8BE
S31500023180556B063E7C0C580040820010899F000059
S315000231902C0C00024080003C398000C3B19E000026
S315000231A048000030898600002C0C00004082001C7A
S315000231B0898600012C0C000040820010899F0000C5
S315000231C02C0C00024180000C398000C3B19E000025
S315000231D0A19E00002C0C00004182007089828B5156
S315000231E07C0C3800418100143D800080396000016A
S315000231F0996CA6004800000C3987000199830000EB
S315000232003FC000803BDE10658BFE000089428B507A
S315000232107C0AF8004181001C3D8000803960000173
S31500023220996CA5FF394000C3B14500004800009CD7
S315000232303D80008039600000996CA5FF395F00016E
S31500023240995E0000480000843980000099830000DE
S31500023250896800002C0B00004082004C3FC00080B1
S315000232603BDE10658BFE000089428B507C0AF8001B
S315000232704181001C3D80008039600001996CA5FFE8
S31500023280394000C3B1450000480000403D8000803F
S3150002329039600000996CA5FF395F0001995E000054
S315000232A0480000283BC000003D6000809BCBA5FF84
S315000232B03D4000809BCA1065480000103D8000809A
S315000232C039600000996CA5FF38E000003FE00080FD
S315000232D03BFFA5FE98FF00003FC000803BDE106862
S315000232E098FE00003D200080A12912CAA1828B52BD
S315000232F07C096000408100643CE0008088E7108B16
S3150002330054EB07BC2C0B00024082005054EC07FE23
S315000233102C0C00004082004439800001999F000075
S315000233203D600080896BA5FD2C0B00004182002CBC
S31500023330A18500002C0C0000408200203CA00080E9
S3150002334038A5813A3D600080896B105E996500015F
S3150002335089450001995E000083C1002083E10024B3
S31500023360382100284E8000209421FFE87C0802A61E
S3150002337093A1000C93C1001093E100149001001C6C
S315000233803D800080818C1CC4558C07BE2C0C00032A
S31500023390408200F43FC000803BDE1CB03FE000806C
S315000233A03BFF1CB43FA000803BBD813238628B5488
S315000233B0888289FC80BF000080DE0000481DDB9900
S315000233C0987D00013D200080899D00019989106B3E
S315000233D038628B94888289FC80BF000080DE000000
S315000233E0481DDC8D987D00003D600080895D0000EF
S315000233F0994B106D3FE000803BFF8134899D0000B0
S315000234003D600080896B10647D8B6050999F00013E
S31500023410895F00017D4A07742C0A00004080000C77
S3150002342039800000999F00018BDF00013D6000801A
S315000234309BCB106938628BD47FC4F378481DDAA916
S31500023440987F00003D200080899F00009989106ABC
S315000234503FC000803BDE8136895D0001554A043E4D
S31500023460899F0000558C043E7D4A61D6396000C8AA
S315000234707D4A5BD6B15E00003D800080893E000138
S31500023480992C106C83A1000C83C1001083E10014F7
S315000234908001001C7C0803A6382100184E800020FB
S315000234A09421FFD893C1002093E100243D8000803F
S315000234B0818C1CC4558C07BE2C0C0003408202D49E
S315000234C03CC0008038C6107088A6000089428BE690
S315000234D07C0A2800418100283BE000013D60008013
S315000234E09BEBA6023D4000809BEAA6013D200080A0
S315000234F0398000009989106F480002983D000080CB
S3150002350039088A9B3CE0008038E781328148000C0A
S31500023510994700018128001C992700003FE000809E
S315000235203BFF813481680020997F00018148002495
S31500023530995F00003FC000803BDE81388188000031
S31500023540558C073E999E00013D0000803908813660
S3150002355039400000B148000089270001552907FEBD
S315000235602C0900014082002089870001558C07BC86
S315000235702C0C000240820010398000C3B188000082
S315000235804800010489870001558C07FE2C0C0001B6
S315000235904082005C89828BE5558C07FE2C0C00016B
S315000235A04082001039800000999E000048000018F1
S315000235B0899F0001897E00017D8C5A147D8C60F8FA
S315000235C0999E0000899F00012C0C00FF4182001485
S315000235D0899F0000897E00007C0C5800418200A869
S315000235E0398000C3B18800004800009C8987000129
S315000235F0558C07BC2C0C00024082006089828BE548
S31500023600558C07FE2C0C000140820010899F000099
S31500023610999E000048000014899F0000897E0001DF
S315000236207D8B6050999E0000899F00002C0C000043
S315000236304182001C899F0001897E00007D6B58F83B
S31500023640556B063E7C0C58004182003C398000C313
S31500023650B188000048000030898700002C0C00FF6A
S315000236604082001C899F00012C0C00FF4082001042
S31500023670899F00002C0C00004182000C398000C397
S31500023680B18800003C6000803863106E3C80008088
S315000236903884813A89428BE7893E0001898300009A
S315000236A07D2C48507D4A483899440001897E0001A4
S315000236B099630000A18800002C0C000041820028BA
S315000236C039850001998600003D600080394000017D
S315000236D0994BA6013D200080398000009989106F20
S315000236E0480000B039800000998600008964000114
S315000236F02C0B00004082003089828BE5558C07FE38
S315000237002C0C0000408200203D80008039600001C0
S31500023710996CA6013D40008039200000992A106F5D
S31500023720480000703D80008039600000996CA60157
S3150002373089470001554A07FE2C0A000141820038DA
S3150002374089870001558C07BC2C0C00024082002898
S31500023750899F00002C0C00004182001C899F0001F9
S31500023760897E00007D6B58F8556B063E7C0C58002E
S31500023770418200143D80008039600000996C106F10
S31500023780480000103D800080897F0000996C106F10
S3150002379083C1002083E10024382100284E800020C6
S315000237A03D800080818C1CC4558C07BE2C0C000306
S315000237B0408200D83CC0008038C6813C3D60008013
S315000237C0896B10803D400080894A10827D6B5214BD
S315000237D0B1660000A18600002C0C00FF4081000C9F
S315000237E0398000FFB18600003D80008089660001B5
S315000237F0996C10723C6000803863108A88830000DE
S31500023800548C073E2C0C0000408200803CA00080B5
S3150002381088A5106C3D6000808946000154A9063EC9
S315000238207D495050B14B12CC8986000154AB063EFD
S315000238307C0C5800408000483CA0008038A51071DE
S3150002384088C5000089428BE87C0A30004181002449
S3150002385038C000013D60008098CBA6033D40008041
S3150002386098CAA60760890001992300004800001C37
S315000238703986000199850000480000103D800080CD
S3150002388039600000996C10714E8000209421FFD897
S3150002389093E100243D800080818C1CC4558C07BEB8
S315000238A02C0C0003408201143C60008038631080B7
S315000238B08BE300003CE0008088E710833D00008037
S315000238C0390881387D0543783C800080388410743D
S315000238D054EB063E57EA063E7C0B500040800074CD
S315000238E03D0000803908107588C8000089428BEABD
S315000238F0394AFFFF7C0A30004081001039860001F8
S31500023900998800004800000C398000009988000060
S315000239103CC0008038C6107889080000894400003F
S3150002392057E9063E5529402E7D4A4A147D8640AE09
S3150002393057EB063E7D8B605089228BE97D8C49D6FA
S315000239407D4A6214B14500007CE641AE4800005C47
S3150002395054EC063E558C402EB18800003FE00080B4
S315000239603BFF813A39400000B15F0000893F000108
S3150002397089828BEA7C096000408000303D0000802D
S3150002398039081078899F00017CE861AEA17F0000AA
S31500023990396B0001B17F0000895F000189828BEAE1
S315000239A07C0A60004180FFE089850000998300005F
S315000239B0896500019964000083E10024382100280A
S315000239C04E8000209421FFE87C0802A693A1000CF9
S315000239D093C1001093E100149001001C3D80008009
S315000239E0818C1CC4558C07BE2C0C0003408201241A
S315000239F03CA0008038A51CAC7CBD2B783FC0008063
S31500023A003BDE81367FDFF3783D400080894A1089AC
S31500023A10554A07BC2C0A00024082002438628C6C8C
S31500023A20888289E080C500003CA0008080A51CB881
S31500023A30481DD525987E00014800002038628C2C4E
S31500023A40888289E080C500003CA0008080A51CB861
S31500023A50481DD505987E00013D800080897F0001C2
S31500023A60996C10813FC000803BDE10683CA000804C
S31500023A7038A5106F899E0000896500007C0C5800ED
S31500023A8040810010899E0000999F00004800000CAA
S31500023A9089850000999F00003FC000803BDE1087A9
S31500023AA0897E0000895F00007C0B50004081000C7B
S31500023AB0899E0000999F0000899F0001897F00006E
S31500023AC07C0C58004081000C899F0001999F0000E0
S31500023AD08BFF00003D6000809BEB108338628CAC4C
S31500023AE07FE4FB78481DD2B17C7F1B783D200080A5
S31500023AF093E91CBC38628BEC888289E080DD000089
S31500023B007FE5FB78481DD4513D800080986C108279
S31500023B1083A1000C83C1001083E100148001001C04
S31500023B207C0803A6382100184E8000209421FFE06D
S31500023B307C0802A693A1001493C1001893E1001C0D
S31500023B40900100243D800080818C1CC4558C07BEE8
S31500023B502C0C0003408201903FA000803BBD108ADE
S31500023B603FC000803BDE813C7FDFF378895D000049
S31500023B70554A07382C0A00004182001C38628CB86C
S31500023B803C80008088841061481DD35D987E0001C8
S31500023B904800000C89828CCB999E00013D800080F2
S31500023BA0897F0001996C10843C800080388481589A
S31500023BB03D20008081291CA8912400008BDD000095
S31500023BC03CA0008038A51CC07CA32B7857CA07FEF0
S31500023BD02C0A0000418200783D800080898C105FAB
S31500023BE0897F00017C0C5800408100543D80008092
S31500023BF0898C105D2C0C00FF408200148184000029
S31500023C00816500007C0C5840418200343CA0008053
S31500023C1038A510868BE5000089428CCA7C0AF8001A
S31500023C204181001063CC0010999D0000480000B04D
S31500023C30399F000199850000480000A43D8000805C
S31500023C4039600000996C10864800009457CC073CF6
S31500023C502C0C0000418200883D800080898C105F18
S31500023C60897F00017C0C5800408100683D800080FD
S31500023C70898C105D2C0C00FF4082001481840000A8
S31500023C80816500007C0C5840418200483CA00080BF
S31500023C9038A510858BE5000089428CC97C0AF8009C
S31500023CA0418100243BE000013D6000809BEBA604BD
S31500023CB03D4000809BEAA60763C90001993D0000CA
S31500023CC04800001C399F0001998500004800001039
S31500023CD03D80008039600000996C10858184000067
S31500023CE09183000083A1001483C1001883E1001CA4
S31500023CF0800100247C0803A6382100204E80002083
S31500023D003D800080818C1CC4558C07BE2C0C0003A0
S31500023D104082002C3D80008039600001996CA60526
S31500023D20386000003D2000809869A6063D8000802C
S31500023D30986C10873D600080986B10884E8000203A
S31500023D40F0F0F0F0E1E1E1E1D2D2D2D2C3C3C3C3D3
S31500023D50B4B4B4B4A5A5A5A5969696968787878783
S31500023D6078787878696969695A5A5A5A4B4B4B4B33
S31500023D703C3C3C3C2D2D2D2D1E1E1E1E0F0F0F0FE3
S31500023D8000000000386000FF3D600080986B82638F
S31500023D903D400080986A82623D2000809869826573
S31500023DA03D800080986C8264386000993D400080B6
S31500023DB0986A8AB13D20008098698AB24E800020B6
S31500023DC09421FFD87C0802A6BF21000C9001002C8A
S31500023DD03D800080818C1CC4558C07BE2C0C0002D1
S31500023DE04082055C3C600001480005893FA00080D6
S31500023DF03BBDC2E0895D00002C0A0000418200182A
S31500023E003D800080898CC2E12C0C006641820064F0
S31500023E10480000143D800080898CC2E12C0C009978
S31500023E20418200503F4000803B5AC2CF897A00004F
S31500023E30396B0001997A00003F4000803B5AC2CCA0
S31500023E40899A0000398C0001999A000039600001B4
S31500023E50997D00003D40008039200066992AC2E122
S31500023E6038600135481DD29D38600135481DD4C9D8
S31500023E703F8000803B9C82633F2000803B398173F8
S31500023E803F6000803B7B81757F7ADB78893C00004E
S31500023E90899900007D8C60F8558C063E7C0960008D
S31500023EA0408200603D800080898C82623D60008095
S31500023EB0896B81727D6B58F8556B063E7C0C5800F7
S31500023EC0408200403D800080898C8265897B0000AB
S31500023ED07D6B58F8556B063E7C0C580040820024D8
S31500023EE03D800080898C82643D600080896B81748C
S31500023EF07D6B58F8556B063E7C0C5800418200508B
S31500023F003FC000803BDEC2CF897E0000396B0001D4
S31500023F10997E00003FC000803BDEC2CC899E000035
S31500023F20398C0001999E000039600001997D0000DC
S31500023F303D40008039200066992AC2E13860013589
S31500023F40481DD1C138600135481DD3ED3FC0008000
S31500023F503BDE812B897E0000557F06722C1F0000F6
S31500023F60408200183D800080898C8AB12C0C009911
S31500023F704182006C4800001C2C1F00404082001445
S31500023F803D800080898C8AB12C0C006641820050EB
S31500023F903FE000803BFFC2CF897F0000396B000102
S31500023FA0997F00003FE000803BFFC2CC899F000062
S31500023FB0398C0001999F000039600001997D00004B
S31500023FC03D40008039200066992AC2E138600135F9
S31500023FD0481DD13138600135481DD35D899E0000E8
S31500023FE0559F06302C1F0000408200183D8000803D
S31500023FF0898C8AB22C0C00994182006C4800001C04
S315000240002C1F0080408200143D800080898C8AB279
S315000240102C0C0066418200503FE000803BFFC2CF7D
S31500024020897F0000396B0001997F00003FE0008024
S315000240303BFFC2CC899F0000398C0001999F00008A
S3150002404039600001997D00003D40008039200066FC
S31500024050992AC2E138600135481DD0A93860013578
S31500024060481DD2D5899E0000558C06722C0C004044
S315000240704082007C887900008962E2217C0B18006C
S31500024080418100403FE000803BFFC2CF897F0000B4
S31500024090396B0001997F000039400001995D0000EB
S315000240A03D80008039200066992CC2E138600135D6
S315000240B0481DD05138600135481DD27D4800001494
S315000240C03BE300019BF900007FEBF8F8997C0000C6
S315000240D0899E0000558C06B0999E00003D600080C6
S315000240E039400099994B8AB14800007C3FE0008034
S315000240F03BFF8AB139600066997F00007FE3FB7857
S31500024100481DC14D2C030000418200543FE000804F
S315000241103BFFC2D1897F0000396B0001997F000005
S315000241203FE000803BFFC2CF899F0000398C00012F
S31500024130999F000039600001997D00003D40008092
S3150002414039200066992AC2E138600135481DCFB58B
S3150002415038600135481DD1E14800000C39800099CC
S31500024160999F0000899E0000558C06302C0C008019
S31500024170408200847F63DB788BFB00008962E22346
S315000241807C0BF800418100403F6000803B7BC2CF40
S31500024190897B0000396B0001997B000039400001E0
S315000241A0995D00003D80008039200066992CC2E1AD
S315000241B038600136481DCF4D38600136481DD17929
S315000241C0480000183BBF00019BA300003D60008031
S315000241D07FAAE8F8994B8265899E0000558C067E77
S315000241E0999E00003D60008039400099994B8AB241
S315000241F04800007C3FC000803BDE8AB23960006620
S31500024200997E00007FC3F378481DC0452C03000049
S31500024210418200543FC000803BDEC2D1897E00004D
S31500024220396B0001997E00003FC000803BDEC2CFA1
S31500024230899E0000398C0001999E000039600001B8
S31500024240997D00003D40008039200066992AC2E12E
S3150002425038600135481DCEAD38600135481DD0D9CC
S315000242604800000C39800099999E00008BD9000005
S315000242702C1E0000408100583F6000803B7B81720B
S315000242808BBB00008942E2207C0AE8004181002CB7
S3150002429039800000999B00003D600080394000FF94
S315000242A0994B82623BBE00FF9BB900007FACE8F8E7
S315000242B0999C0000480000183B9D00019B9B000052
S315000242C03D6000807F8AE0F8994B82628B3A00005B
S315000242D02C1900004081005C3FA000803BBD817428
S315000242E08B9D00008942E2227C0AE0004181003077
S315000242F039800000999D00003D600080394000FF32
S31500024300994B82643B9900FF9B9A00003D80008096
S315000243107F8BE0F8996C8265480000183B5C0001CF
S315000243209B5D00003D6000807F4AD0F8994B826415
S315000243303C60008080638AFC48000061BB21000C5F
S315000243408001002C7C0803A6382100284E8000201C
S315000243503D8000803D6010C3616B7198916C8B004B
S315000243603D40008039200000B12A12CE4E80002046
S315000243703C800080388412CEA164000038AB000174
S31500024380B0A400003D40008054ACD8087C6C637831
S31500024390918A8AFC4E8000203C80008038848154B9
S315000243A03CA0008038A58B008145000091440000A6
S315000243B0812500007D294A147C634A7890650000B5
S315000243C081840000558C00002C0C000041820010F4
S315000243D0686C00056D8C8000918500004E8000207F
S315000243E09421FFE87C0802A693A1000C93C1001059
S315000243F093E100149001001C3FE000803BFF1CC4C7
S31500024400817F0000556B07BE2C0B000340820128FA
S315000244103D800018398C4B907D8803A64E80002182
S315000244203FC000803BDEA608895E00002C0A000021
S31500024430418200183D800080898C82582C0C0066CF
S315000244404182004C480000143D800080898C8258CD
S315000244502C0C0099418200383CC0008038C6C2CC80
S3150002446089660000396B0001996600003CC0008035
S3150002447038C6812B89860000618C0040998600002F
S315000244803D60008039400066994B8AB13D80001834
S31500024490398C4BD07D8803A64E800021897E000090
S315000244A02C0B0000418200783D800018398C4B901D
S315000244B07D8803A64E8000213CC0008080C61CCCAD
S315000244C07CC333784BFFFED53FA000803BBD8B00FB
S315000244D03D200080819D000091891CD43D600080B2
S315000244E054CA073E994B109439200000993E0000A9
S315000244F03D80008039600099996C82583D400018D1
S31500024500394A4BD07D4803A64E8000213D2010C378
S3150002451061297198913D0000480000103C605B4E95
S31500024520606364334BFFFE753D8000803960000096
S31500024530B16C12CE819F0000398C0001919F000060
S3150002454083A1000C83C1001083E100148001001CCA
S315000245507C0803A6382100184E8000209421FFB063
S315000245607C0802A6BE010010900100543FA0008004
S315000245703BBDC2F07FB6EB783F8000803B9CC2EF2A
S315000245807F95E3783F2000803B39C2E17F34CB78C8
S315000245903F6000803B7BC2E07F73DB783FC00080D8
S315000245A03BDEC2EE7FD2F3783F0000803B18C2ECBE
S315000245B07F11C3783FE000803BFFC2F27FF0FB78B9
S315000245C03F4000803B5AC2ED7F57D3783D80008042
S315000245D0898CA8842C0C000041820044388000009B
S315000245E03D600080988BC2EA386000993D200080C9
S315000245F09869C2EB989A0000987F0000989800008C
S31500024600987E0000989B000098790000398000FF90
S31500024610999C0000989D0000480001207F03C37802
S31500024620899800002C0C000041820014899E00002B
S315000246302C0C00664182001448000028899E000066
S315000246402C0C00994082001C899C0000897D000088
S315000246507D6B58F8556B063E7C0C5800418200442F
S3150002466039800001999A000039600066997F00003E
S31500024670394000009943000039200099993E000014
S315000246803980007F999C000039600080997D000086
S3150002469038600134481DCA6D38600134481DCC9912
S315000246A07F43D378899A00002C0C000041820014C3
S315000246B0899F00002C0C00664182003448000010DD
S315000246C0899F00002C0C0099418200243980000148
S315000246D09983000039600066997F000038600134D2
S315000246E0481DCA2138600134481DCC4D7F63DB78F2
S315000246F0899B00002C0C000041820014899900005D
S315000247002C0C006641820034480000108999000092
S315000247102C0C009941820024398000019983000003
S31500024720396000669979000038600134481DC9D5A0
S3150002473038600134481DCC0189828CCD2C0C005581
S31500024740418201DC3F2000803B398B183960000032
S31500024750997900007F03C378895800002C0A00006B
S315000247604082001C899A00002C0C00004082001036
S31500024770899B00002C0C0000418201A4398000FFB5
S31500024780999900007F58D378897A00002C0B000093
S3150002479040820010899B00002C0C0000418200C858
S315000247A03FC000803BDE8B0839600000B17E00000E
S315000247B07F3FCB787FDCF3783F4000803B5A8B0CFF
S315000247C03F2000803B398B143F6000803B7B8B048B
S315000247D03F0000803B188B10481E212D807B000075
S315000247E083C3000093D8000083A3000493B900009A
S315000247F07FC3F3787FA4EB78481DBAA5907A0000B0
S31500024800813B0000812900087C091840418200088A
S31500024810481E705DA19C0000398C0001B19C00000D
S31500024820897F00002C0B007F4081002C480149E55E
S315000248302C030000408200203D800042398CE99C16
S315000248407D8803A64E800021897F0000396B00FF18
S31500024850997F0000A19C00002C0C00404180FF7C47
S31500024860480000BC7F9BE3788B5C0000574B063EFA
S315000248702C0B0040408000143D800080574B063EC2
S31500024880B16C8B08480000443980000199980000F9
S3150002489039600066997F00003940000099430000A4
S315000248A039200099993E00003980007F999B0000CB
S315000248B039600080997D000038600134481DC84582
S315000248C038600134481DCA71481E203D3FC0008031
S315000248D03BDE8B0483BE000083FD00003D2000808A
S315000248E093E98B10839D00043D600080938B8B14AB
S315000248F07FE3FB787F84E378481DB9A57C7D1B782E
S315000249003D40008093AA8B0C813E0000812900085D
S315000249107C09E84041820008481E6F553BE00000D2
S315000249203D6000809BEBC2F19BF700003AE00099E4
S315000249309AF000009BF100009AF200009BF300003F
S315000249409AF40000392000FF993500009BF600001A
S31500024950BA010010800100547C0803A638210050D9
S315000249604E8000200002004003950000000003E88C
S315000249700000000A0001000001008CA0FFFF0000F9
S3150002498000004E20000000C8000100003C800080AC
S31500024990888410BC3CA0008038A510C07CA32B786C
S315000249A0548A06F62C0A000040820044548C0630D3
S315000249B02C0C0000408200383D800080898C10BD9E
S315000249C0558C07FE2C0C0000408200243D8000809E
S315000249D0898CA6352C0C00004082001489850000C3
S315000249E0618C00019985000048000010898500004D
S315000249F0558C063C9985000088A3000054AB07FE3F
S31500024A002C0B0000418200383C800080888410B85C
S31500024A10548B06302C0B000040820024548C077AFB
S31500024A202C0C0000408200183D800080898C10B753
S31500024A30558C07FE2C0C00004182002460A500085C
S31500024A4060A5000460A5000254A5073454A506F229
S31500024A5054AB06B0996300004800002054A50776BF
S31500024A6054A507B854A507FA60A5001060A5002052
S31500024A7060AB0040996300004E8000203D800080BC
S31500024A80A16294AAB16CC3223D400080A12294BCCB
S31500024A90B12AC3283D80008039600000B16CC3246E
S31500024AA03D400080A12294AEB12AC3263C800080FC
S31500024AB03884C31C896400005563063C546A07FAAD
S31500024AC0994400003D800080A12294A2B12CC31E0D
S31500024AD03D600080A14294A4B14BC3203D8000807A
S31500024AE0A12294CEB12CC32C4E8000203C600080C3
S31500024AF03863C31C88C300003CA0008038A5C328C5
S31500024B003C8000803884C32254CC07FE2C0C000063
S31500024B10408200143D80008039600001996CA656DF
S31500024B20480000383D800080898CA6532C0C00007A
S31500024B3041820028A18294AAB1840000A16294BC99
S31500024B40B165000054CA07FA994300003D2000806F
S31500024B50A1829488B18914343D800080A16400004A
S31500024B60B16C14443D400080A1250000B12AC32A3D
S31500024B7038C000003D60008098CBA63D3D400080D5
S31500024B8039200000B12A145A3D80008098CCA63EF6
S31500024B903D60008098CBA63F3D4000803920000151
S31500024BA0992AA64F3D80008098CCA64D4E800020C3
S31500024BB03C600080386314D8A0830000A1429B08A1
S31500024BC07C0A2000408000303D8000803960000170
S31500024BD0996CA67D3D400080894AA9752C0A000081
S31500024BE0408200DC3D80008039600001996CA6801D
S31500024BF0480000CCA1829B067C0C20004080001459
S31500024C003D80008039600001996CA6794800003C1D
S31500024C103D800080898C8C142C0C00004082002C74
S31500024C20A1829B047C0C2000408000203D800080F5
S31500024C30898C10122C0C0000408200103D800080EE
S31500024C4039600001996CA68239840001B1830000A3
S31500024C503D600080896BA9752C0B000040820054D0
S31500024C603C600080386310E88883000089429AED30
S31500024C707C0A2000418100143D80008039600000DA
S31500024C80996CA68148000038388400019883000098
S31500024C90548B063E89429AED7C0B500041800020DF
S31500024CA03D80008039600001996CA68148000010A1
S31500024CB03D80008039600000996C10E84E8000202B
S31500024CC0081C00001A0E00009421FFD87C0802A6D8
S31500024CD0BF6100149001002C3F8000803B9C110FA5
S31500024CE0897C0000556B07FE2C0B00004182008474
S31500024CF03FA000803BBD1110897D0000557E073420
S31500024D0057DF07B863FE00019BDD0000A3A29C8C5F
S31500024D103D600080B3AB15AE57CA06722C0A00007E
S31500024D20418200443D800000618CFFFF7FFD6050A0
S31500024D302C1F00004080000C3BE000004800001CD5
S31500024D403D800000618CFFFF7C1F60004081000CEB
S31500024D503FE0000063FFFFFF3D800080B3EC15AC2F
S31500024D60480006FC3D800080B3AC15AC480006F056
S31500024D703FA000803BBDA6A4897D00002C0B00004D
S31500024D80418200143D80008039600000B16C1586B6
S31500024D904800003C3FE00080ABFF14F43CA00080DA
S31500024DA0A8A515487FDF28502C1E80004080000CE5
S31500024DB03BC08000480000102C1E7FFF4081000887
S31500024DC03BC07FFF3D800080B3CC15863F60005D0F
S31500024DD0AB7BB24A3FE000803BFF1548A8BF00000C
S31500024DE07FDB28502C1E80004080000C3BC08000D8
S31500024DF0480000102C1E7FFF408100083BC07FFF49
S31500024E007FC5F3787CA3073438807FFF483FEFA144
S31500024E105463043EA1429CA27C0350004080001CC5
S31500024E203FC000803BDE880D897E0000616B000179
S31500024E30997E0000480000183FC000803BDE880DC6
S31500024E40897E0000556B063C997E00003D800080FD
S31500024E50898C10ED558C07BC2C0C00004082002476
S31500024E60899D00002C0C0000408200183D800080C5
S31500024E70898C880D558C07FE2C0C00004182001C83
S31500024E803FA000803BBD1110897D0000616B0004CC
S31500024E90997D0000480000183FA000803BBD11101C
S31500024EA0897D0000556B07B8997D00003FA0008000
S31500024EB03BBD1110897D0000557E073457CA077A1B
S31500024EC02C0A00004082001C57CC06F62C0C00006F
S31500024ED04082001063CC0001999D00004800000C3E
S31500024EE057CC063C999D0000899D0000558C07FE13
S31500024EF02C0C0000418200303D800080898C10E934
S31500024F00558C07382C0C00004082001C3FC00080E4
S31500024F103BDE1111897E0000616B0004997E000060
S31500024F20480000183FC000803BDE1111897E000058
S31500024F30556B07B8997E00003F6000803B7B1111DC
S31500024F40897B0000556B077A2C0B000041820058C2
S31500024F50A8A29CA4ABDF00007FE5F0502C1F8000C6
S31500024F604080000C3BE08000480000102C1F7FFFB1
S31500024F70408100083BE07FFF7FE3073438807FFFF4
S31500024F80483FEE2D5463043EA1429CA07C03500090
S31500024F9041800014899D0000618C0080999D00006B
S31500024FA048000010899D0000558C067E999D0000E0
S31500024FB0899B0000558C077A2C0C0000418200B8B0
S31500024FC03FE00080ABFF1586A9629C867C0BF80049
S31500024FD04080000CABC29C864800001CA9829C84BF
S31500024FE07C0CF8004081000CABC29C84480000088F
S31500024FF07FFEFB787FCC07343D600080A96B158E5F
S315000250007FEC59D693E10008ABC100082C1E00FFC5
S315000250104081000C3BE07FFF480000202C1EFF0071
S315000250204080000C3BE080004800001057EC38300E
S3150002503091810008ABE100083FC000803BDE894C4D
S31500025040A0DE0002A8BE0000A8E29C90A9229C94C1
S315000250503860028F7FE4FB78390000003940000097
S3150002506048430251907E00003D200080A97E000048
S31500025070B16915B2899D0000558C06302C0C0000D2
S31500025080418200A03FC000803BDE89483FE00080AD
S315000250903BFF15B2A0DE0002A89F0000A8BE0000DA
S315000250A0A0629C9CA8E29C8EA9229C9239000000D8
S315000250B039400000484301FD907E0000A8BE000072
S315000250C03D200080B0A9159E3F600080AB7B159AFB
S315000250D07FC5DA142C1E80004080000C3BC0800085
S315000250E0480000102C1E7FFF408100083BC07FFF56
S315000250F0A8BF00007FDF07347FDF2A142C1E800042
S315000251004080000C3BC08000480000102C1E7FFF30
S31500025110408100083BC07FFF3D800080B3CC1598DC
S315000251203FE00080ABFF15863D600080A96B1590BD
S315000251307CBF59D690A10008ABC100082C1E00FF07
S31500025140408100143D80008039607FFFB16C15A656
S31500025150480000282C1EFF00408000143D8000807D
S3150002516039608000B16C15A6480000103D800080B1
S315000251707CAB4E70B16C15A63FC000803BDE158439
S31500025180AB7E00007CBBF8502C0580004080000CF2
S3150002519038A08000480000102C057FFF40810008DF
S315000251A038A07FFF7CBB2B783D800080B36C158ACC
S315000251B07F650734A9429C8A7C0A28004080003019
S315000251C0A8829C8A7F6428502C1B80004080000C99
S315000251D03B608000480000102C1B7FFF40810008C6
S315000251E03B607FFF7F65DB7848000040A9829C8890
S315000251F07C0C280040810030A8829C887F6428505D
S315000252002C1B80004080000C3B6080004800001090
S315000252102C1B7FFF408100083B607FFF7F65DB78A8
S315000252204800000838A000007CAC07343D600080CE
S31500025230A96B158C7F6C59D693610008A8A100084A
S315000252402C0500FF408100143D80008039607FFFFD
S31500025250B16C1594480000282C05FF00408000140C
S315000252603D80008039608000B16C159448000010C2
S315000252703D8000807F6B4E70B16C1594B3FE0000CA
S315000252808BFD000057EB06F62C0B00004182001442
S315000252903D800080A1629C9AB16C15A2480000B4C0
S315000252A057EC077A2C0C0000418200143D800080E6
S315000252B0A1629C8CB16C15A2480000983CA00080AB
S315000252C0A8A515943FC00080ABDE15A67FFE2A1462
S315000252D02C1F80004080000C3BE08000480000103C
S315000252E02C1F7FFF408100083BE07FFF7FFEFB789B
S315000252F03CA00080A8A515987FDB07347FFB2A1403
S315000253002C1F80004080000C3BE08000480000100B
S315000253102C1F7FFF408100083BE07FFF7FFEFB786A
S315000253207FCC07342C0C0000408000083BC00000F4
S3150002533057DF043E57FE103A281EFFFF4180000C3D
S315000253403FC0000063DEFFFF3D800080B3CC15A2A4
S315000253503D800080898C110E558C402E5584043E6A
S315000253603C600080A06315A2483FEE89547F043E4C
S31500025370A1429C967C0AF800408000143D80008081
S31500025380A1629C96B16C15AE48000028A1829C9839
S315000253907C0CF800408100143D800080A1629C983C
S315000253A0B16C15AE4800000C3D800080B3EC15AE22
S315000253B03D800080898CA86B2C0C0000418200384D
S315000253C0899D0000558C06722C0C00004182001843
S315000253D03D8000803D600000616BFFFFB16C15AC43
S315000253E04800007C3D80008039600000B16C15AC3D
S315000253F04800006C899D0000558C06722C0C00003A
S315000254004182004C3FE00080A3FF15AE3D600000E4
S31500025410616BFFFF7FBF58502C1D00004080000CBF
S315000254203BA000004800001C3D800000618CFFFF8D
S315000254307C1D60004081000C3FA0000063BDFFFFA1
S315000254403D800080B3AC15AC480000143D8000805E
S315000254503D600080A16B15AEB16C15AC899C000055
S31500025460558C07BC2C0C0000418200843FA00080B2
S315000254703BBD1110897D0000557F06F257FC077669
S31500025480639F00029BFD0000A3829C8C3D6000800E
S31500025490B38B15A857EA06722C0A00004182004413
S315000254A03D800000618CFFFF7FBC60502C1D000018
S315000254B04080000C3BA000004800001C3D8000001C
S315000254C0618CFFFF7C1D60004081000C3FA0000044
S315000254D063BDFFFF3D800080B3AC15AA480006FC01
S315000254E03D800080B38C15AA480006F03F800080FC
S315000254F03B9CA6A3897C00002C0B00004182001471
S315000255003D80008039600000B16C15804800003C87
S315000255103FE00080ABFF14F23FC00080ABDE1546D1
S315000255207FBFF0502C1D80004080000C3BA0800005
S31500025530480000102C1D7FFF408100083BA07FFF22
S315000255403D800080B3AC15803CA0005DA8A5B24AA0
S315000255503FA000803BBD1546ABDD00007FE5F05065
S315000255602C1F80004080000C3BE0800048000010A9
S315000255702C1F7FFF408100083BE07FFF7FFEFB7808
S315000255807FC3073438807FFF483FE8255463043ED3
S31500025590A1429CA27C0350004080001C3FE0008098
S315000255A03BFF880D897F0000616B0002997F000036
S315000255B0480000183FE000803BFF880D897F00000D
S315000255C0556B07FA997F00003D800080898C10EDAB
S315000255D0558C07BC2C0C000040820024899C0000DC
S315000255E02C0C0000408200183D800080898C880DBA
S315000255F0558C07BC2C0C00004182001C3F800080A9
S315000256003B9C1110897C0000616B0008997C0000AC
S31500025610480000183F8000803B9C1110897C0000E6
S31500025620556B0776997C00003F8000803B9C1110E9
S31500025630897C0000557F06F257EA07382C0A0000DB
S315000256404082001C57EC06B42C0C0000408200106D
S3150002565063EC0002999C00004800000C57EC07FA24
S31500025660999C0000899C0000558C07BC2C0C0000FC
S31500025670418200303D800080898C10E9558C0738C4
S315000256802C0C00004082001C3FE000803BFF111101
S31500025690897F0000616B0002997F000048000018B4
S315000256A03FE000803BFF1111897F0000556B07FA2E
S315000256B0997F00003FE000803BFF1111897F0000C7
S315000256C0556B07BC2C0B000041820058ABC29CA450
S315000256D0ABBD00007FBEE8502C1D80004080000C50
S315000256E03BA08000480000102C1D7FFF408100086F
S315000256F03BA07FFF7FA3073438807FFF483FE6B198
S315000257005463043EA1429CA07C03500041800014D5
S31500025710899F0000618C0001999F000048000010DB
S31500025720899F0000558C063C999F0000899F0000C6
S31500025730558C07BC2C0C0000418200B83FC000808B
S31500025740ABDE1580A9629C867C0BF0004080000CC3
S31500025750ABA29C864800001CA9829C847C0CF000AB
S315000257604081000CABA29C84480000087FDDF378E0
S315000257707FAC07343D600080A96B158E7FCC59D66D
S3150002578093C10008ABA100082C1D00FF4081000C4C
S315000257903BC07FFF480000202C1DFF004080000C0C
S315000257A03BC080004800001057CC38309181000879
S315000257B0ABC100083FA000803BBD8954A0DD0002BA
S315000257C0A8BD0000A8E29C90A9229C943860028F92
S315000257D07FC4F37839000000394000004842FAD508
S315000257E0907D00003D200080A97D0000B16915B0C2
S315000257F0899F0000558C07FE2C0C0000418200A0F8
S315000258003FC000803BDE89503FA000803BBD15B003
S31500025810A0DE0002A89D0000A8BE0000A0629C9C1B
S31500025820A8E29C8EA9229C92390000003940000011
S315000258304842FA81907E0000ABFE00003D200080C7
S31500025840B3E9159C3FC00080ABDE159A7FFFF214C8
S315000258502C1F80004080000C3BE0800048000010B6
S315000258602C1F7FFF408100083BE07FFFABBD00009D
S315000258707FFF07347FBFEA142C1D80004080000C96
S315000258803BA08000480000102C1D7FFF40810008CD
S315000258903BA07FFF3D800080B3AC15963FA0008001
S315000258A0ABBD15803D600080A96B15907FFD59D672
S315000258B093E10008ABC100082C1E00FF40810014D2
S315000258C03D80008039607FFFB16C15A44800002836
S315000258D02C1EFF00408000143D800080396080004D
S315000258E0B16C15A4480000103D8000807FEB4E701D
S315000258F0B16C15A43FE000803BFF1582ABDF0000D0
S315000259007FDEE8502C1E80004080000C3BC08000E9
S31500025910480000102C1E7FFF408100083BC07FFF1D
S315000259207FC5F3783D800080B0AC15887CBE073415
S31500025930A9429C8A7C0AF00040800030A8A29C8A78
S315000259407CA5F0502C0580004080000C38A0800019
S31500025950480000102C057FFF4081000838A07FFF19
S315000259607CBE2B7848000040A9829C887C0CF00003
S3150002597040810030A8A29C887CA5F0502C058000AE
S315000259804080000C38A08000480000102C057FFFE4
S315000259904081000838A07FFF7CBE2B7848000008B3
S315000259A03BC000007FCC07343D600080A96B158C9C
S315000259B07CAC59D690A10008ABC100082C1E00FF92
S315000259C0408100143D80008039607FFFB16C1592E2
S315000259D0480000282C1EFF00408000143D800080F5
S315000259E039608000B16C1592480000103D8000803D
S315000259F07CAB4E70B16C1592B3BF00008BBC00003D
S31500025A0057AB06B42C0B0000418200143D80008087
S31500025A10A1629C9AB16C15A0480000B457AC073835
S31500025A202C0C0000418200143D800080A1629C8CF7
S31500025A30B16C15A0480000983FE00080ABFF1592BC
S31500025A403FA00080ABBD15A47FFDFA142C1F800079
S31500025A504080000C3BE08000480000102C1F7FFFB6
S31500025A60408100083BE07FFF7FFDFB783FE000803E
S31500025A70ABFF15967FBD07347FFDFA142C1F8000FD
S31500025A804080000C3BE08000480000102C1F7FFF86
S31500025A90408100083BE07FFF7FFDFB787FAC073447
S31500025AA02C0C0000408000083BA0000057BD043EBD
S31500025AB057BD103A281DFFFF4180000C3FA0000091
S31500025AC063BDFFFF3D800080B3AC15A03D80008022
S31500025AD0898C110E558C402E5584043E3C60008004
S31500025AE0A06315A0483FE70D547D043EA1429C9653
S31500025AF07C0AE800408000143D800080A1629C96EA
S31500025B00B16C15A848000028A1829C987C0CE8007C
S31500025B10408100143D800080A1629C98B16C15A85A
S31500025B204800000C3D800080B3AC15A83D80008083
S31500025B30898CA86B2C0C000041820038899C0000DD
S31500025B40558C06722C0C0000418200183D800080A4
S31500025B503D600000616BFFFFB16C15AA4800007C36
S31500025B603D80008039600000B16C15AA4800006CC7
S31500025B70899C0000558C06722C0C00004182004C58
S31500025B803FA00080A3BD15A83D600000616BFFFF2A
S31500025B907F9D58502C1C00004080000C3B8000006A
S31500025BA04800001C3D800000618CFFFF7C1C6000E9
S31500025BB04081000C3F800000639CFFFF3D80008017
S31500025BC0B38C15AA480000143D8000803D60008019
S31500025BD0A16B15A8B16C15AABB6100148001002C3B
S31500025BE07C0803A6382100284E8000209421FFE07D
S31500025BF07C0802A6BF61000C900100243FA0005D54
S31500025C003BBDB24AABDD00003FE00080ABFF19AA04
S31500025C107FFEF8502C1F80004080000C3BE0800085
S31500025C20480000102C1F7FFF408100083BE07FFFE9
S31500025C307FE3073438807FFF483FE1757C7E1B781F
S31500025C403FE000803BFF10E9893F0000553C077AA0
S31500025C502C1C00004182003457CC043EA1629C8277
S31500025C607C0C58004080001C3FC000803BDE110FB8
S31500025C70897E0000616B0001997E000048000020C9
S31500025C802C1C0000408200183FC000803BDE110F32
S31500025C90897E0000556B063C997E00003F600080BD
S31500025CA03B7B1D343F8000803B9C1D143FC0005D42
S31500025CB03BDEB958A09E00003C60005D3863B9FA2D
S31500025CC080BC000080DB00004842EEA53D2000803B
S31500025CD0B0691590A09E00003C60005D3863B9B2C1
S31500025CE080BC000080DB00004842EE853D800080DB
S31500025CF0B06C158CA09E00003C60005D3863BA4211
S31500025D0080BC000080DB00004842EE653D800080DA
S31500025D10B06C158EABDD00003FA00080ABBD19A8AC
S31500025D207FBEE8502C1D80004080000C3BA0800006
S31500025D30480000102C1D7FFF408100083BA07FFF1A
S31500025D407FA3073438807FFF483FE0657C7D1B7860
S31500025D50895F0000555E077A2C1E000041820034DE
S31500025D6057AC043EA1629C827C0C58004080001C09
S31500025D703FE000803BFF110F897F0000616B00024C
S31500025D80997F0000480000202C1E00004082001867
S31500025D903FE000803BFF110F897F0000556B07FA39
S31500025DA0997F0000BB61000C800100247C0803A6D9
S31500025DB0382100204E8000209421FFD87C0802A6BC
S31500025DC0BF6100149001002C3F8000803B9C1113A0
S31500025DD0897C0000556B07FE2C0B00004182008473
S31500025DE03FA000803BBD1114897D0000557E07341B
S31500025DF057DF07B863FE00019BDD0000A3A29CD219
S31500025E003D600080B3AB15E257CA06722C0A000049
S31500025E10418200443D800000618CFFFF7FFD60509F
S31500025E202C1F00004080000C3BE000004800001CD4
S31500025E303D800000618CFFFF7C1F60004081000CEA
S31500025E403FE0000063FFFFFF3D800080B3EC15E0FA
S31500025E50480007003D800080B3AC15E0480006F418
S31500025E603FA000803BBD1103897D0000556B07FEF4
S31500025E702C0B0000418200143D8000803960000036
S31500025E80B16C15BE4800003C3FE00080ABFF14EA4F
S31500025E903CA00080A8A515607FDF28502C1E80003C
S31500025EA04080000C3BC08000480000102C1E7FFF83
S31500025EB0408100083BC07FFF3D800080B3CC15BE09
S31500025EC0AB629C483FE000803BFF1560A8BF000024
S31500025ED07FDB28502C1E80004080000C3BC08000D7
S31500025EE0480000102C1E7FFF408100083BC07FFF48
S31500025EF07FC5F3787CA3073438807FFF483FDEB145
S31500025F005463043EA1429CDA7C0350004080001C8C
S31500025F103FC000803BDE880E897E0000616B000177
S31500025F20997E0000480000183FC000803BDE880EC4
S31500025F30897E0000556B063C997E00003D800080FC
S31500025F40898C10ED558C07382C0C000040820028F5
S31500025F50899D0000558C07FE2C0C0000408200181B
S31500025F603D800080898C880E558C07FE2C0C000023
S31500025F704182001C3FA000803BBD1114897D0000B8
S31500025F80616B0010997D0000480000183FA0008058
S31500025F903BBD1114897D0000556B0734997D0000C5
S31500025FA03FA000803BBD1114897D0000557E07B8D5
S31500025FB057CA077A2C0A00004082001C57CC06F604
S31500025FC02C0C00004082001063CC0001999D000059
S31500025FD04800000C57CC063C999D0000899D0000A4
S31500025FE0558C07FE2C0C0000418200303D8000805B
S31500025FF0898C10E9558C07382C0C00004082001C55
S315000260003FC000803BDE1115897E0000616B0004F3
S31500026010997E0000480000183FC000803BDE111543
S31500026020897E0000556B07B8997E00003F600080AC
S315000260303B7B1115897B0000556B077A2C0B000000
S3150002604041820058A8A29CDCABDF00007FE5F0503D
S315000260502C1F80004080000C3BE0800048000010AE
S315000260602C1F7FFF408100083BE07FFF7FE3073460
S3150002607038807FFF483FDD395463043EA1429CD8F5
S315000260807C03500041800014899D0000618C0080D1
S31500026090999D000048000010899D0000558C067EDF
S315000260A0999D0000899B0000558C077A2C0C0000F4
S315000260B0418200B83FE00080ABFF15BEA9629CC2D8
S315000260C07C0BF8004080000CABC29CC24800001C4E
S315000260D0A9829CC07C0CF8004081000CABC29CC01B
S315000260E0480000087FFEFB787FCC07343D600080C5
S315000260F0A96B15C27FEC59D693E10008ABC1000823
S315000261002C1E00FF4081000C3BE07FFF4800002070
S315000261102C1EFF004080000C3BE08000480000106F
S3150002612057EC383091810008ABE100083FC000808F
S315000261303BDE895CA0DE0002A8BE0000A8E29CC885
S31500026140A9229CCC3860028F7FE4FB7839000000DC
S31500026150394000004842F15D907E00003D200080FB
S31500026160A97E0000B16915E6899D0000558C0630AE
S315000261702C0C0000418200A03FE000803BFF8958C2
S315000261803FC000803BDE15E6A0DF0002A89E0000AD
S31500026190A8BF0000A0629CD4A8E29CC6A9229CCA01
S315000261A039000000394000004842F109907F0000A2
S315000261B0A8BF00003D200080B0A915D23F60008034
S315000261C0AB7B15CE7FE5DA142C1F80004080000CD5
S315000261D03BE08000480000102C1F7FFF4081000832
S315000261E03BE07FFFA8BE00007FFE07347FFE2A1435
S315000261F02C1F80004080000C3BE08000480000100D
S315000262002C1F7FFF408100083BE07FFF3D8000801E
S31500026210B3EC15CC3FE00080ABFF15BE3D600080BD
S31500026220A96B15C47CBF59D690A10008ABC1000862
S315000262302C1E00FF408100143D80008039607FFFE4
S31500026240B16C15DA480000282C1EFF0040800014AD
S315000262503D80008039608000B16C15DA480000107C
S315000262603D8000807CAB4E70B16C15DA3FC0008079
S315000262703BDE15B6AB7E00007CBBF8502C058000D9
S315000262804080000C38A08000480000102C057FFFDB
S315000262904081000838A07FFF7CBB2B783D800080C0
S315000262A0B36C15BA7F650734A9429CBE7C0A2800E6
